:020000040800F2
:100000000810002001050008250500082905000842
:100010002D05000831050008350500080000000026
:10002000000000000000000000000000390500088A
:100030003D050008000000004105000845050008D6
:10004000490500084D050008510500085505000840
:10005000590500085D0500086105000865050008F0
:10006000690500086D0500087105000875050008A0
:10007000790500087D050008810500088505000850
:10008000890500088D050008910500089505000800
:10009000990500089D050008A1050008A5050008B0
:1000A000A9050008AD050008B1050008B505000860
:1000B000B9050008BD050008C1050008C505000810
:1000C000C9050008CD050008D1050008D5050008C0
:1000D000D9050008DD050008E1050008E505000870
:1000E000E9050008ED050008F105000880B53E4966
:1000F000086850F0010008603C4A13683C4803401F
:1001000013600B683B4803400B60086830F48020A4
:100110000860106830F4FE0010605FF41F0036497C
:10012000086000F005F85FF000603449086001BD28
:1001300080B500F001F801BD82B0002001900020E0
:1001400000902949086850F480300860086810F46D
:10015000003000900198401C01900098002803D1C5
:100160000198B0F5A06FF1D10868800302D5012095
:10017000009001E0002000900098012831D1204833
:10018000026852F010020260026892089200026057
:10019000026852F0020202601448026802600268BB
:1001A0000260026852F480620260026832F47C12DB
:1001B0000260026852F4E81202600A6852F080722B
:1001C0000A600A689201FCD501688908890001600B
:1001D000016851F002010160016811F00C01082969
:1001E000FAD102B070470000001002400410024033
:1001F0000000FFF8FFFFF6FE0810024008ED00E0E7
:1002000000200240F0B4002200220022002200223E
:100210000022CB7813F00F03CA78D20602D591F9E9
:10022000022013430A78120622D0066800241CE03C
:1002300091F90320482A17D1A740076114E001274C
:1002400017FA04F50A882A40AA420DD1A2000F2508
:100250009540AE4313FA02F23243160091F903209F
:10026000282AE5D1A7404761641C082CE7D3066023
:100270000A88B2F5807F28DB4668002422E0012747
:1002800014F1080517FA05F50A882A40AA4218D180
:10029000A2000F259540AE4313FA02F23243160036
:1002A00091F90320282A04D114F1080217FA02F266
:1002B000426191F90320482A03D114F108029740C2
:1002C0000761641C082CDAD34660F0BC704789B221
:1002D0000161704789B24161704700001CB501217E
:1002E000242000F049F810208DF803004FF48070AE
:1002F000ADF8000003208DF802001D4C6946200077
:10030000FFF780FF4FF480712000FFF7E0FF10201F
:100310008DF803000420ADF8000003208DF80200E2
:10032000144C69462000FFF76DFF04212000FFF701
:10033000CEFF13BD70B50E4C4FF480712000FFF757
:10034000C9FF0C4D04212800FFF7C1FF40F6B83665
:10035000300000F034F84FF480712000FFF7B7FF51
:1003600004212800FFF7B6FF300000F028F870BD28
:10037000000801400014014049B2002904D0054999
:100380000A681043086004E002490A6832EA000083
:10039000086070471810024080B57FF0040000F03C
:1003A00037F8144814490968144AB1FBF2F1017096
:1003B00001784FF47A7041431148018001BD80B249
:1003C0000F49098848430F4908600F490020086019
:1003D0000E4A106850F001001060106810F0011013
:1003E0000128FAD010684008400010600020086022
:1003F00070470000060000200000002000127A0074
:100400000400002014E000E018E000E010E000E04C
:10041000042805D10548016851F00401016004E099
:100420000248016831F004010160704710E000E00B
:1004300030B450F8041B79B10268436802440830B4
:10044000DC0744BFA9F10104E31852F8045B43F848
:10045000045B091FF9D1ECE730BC704710B50749C0
:1004600079441831064C7C44163404E00A68081DAF
:10047000114488470146A142F8D110BD0800000090
:1004800018000000ADFFFFFF080000009000000012
:10049000000000200000000000F00DF8002801D04E
:1004A000FFF7DCFFAFF300800020AFF3008000F027
:1004B00004F800F009F80120704780B500F006F854
:1004C00000F00AF8002002BD00F00AB880B5FFF77E
:1004D00005FFFFF761FF01BD80B5FFF72BFFFCE7CC
:1004E0000746384600F002F8FBE7000080B5AFF39E
:1004F0000080024A11001820ABBEFBE72600020074
:100500000148804701480047ED0000081105000838
:10051000AFF30080AFF30080FFF7BEFF00A24A04F4
:1005200000000000FFF7FEBFFFF7FEBFFFF7FEBFB2
:10053000FFF7FEBFFFF7FEBFFFF7FEBFFFF7FEBFEF
:10054000FFF7FEBFFFF7FEBFFFF7FEBFFFF7FEBFDF
:10055000FFF7FEBFFFF7FEBFFFF7FEBFFFF7FEBFCF
:10056000FFF7FEBFFFF7FEBFFFF7FEBFFFF7FEBFBF
:10057000FFF7FEBFFFF7FEBFFFF7FEBFFFF7FEBFAF
:10058000FFF7FEBFFFF7FEBFFFF7FEBFFFF7FEBF9F
:10059000FFF7FEBFFFF7FEBFFFF7FEBFFFF7FEBF8F
:1005A000FFF7FEBFFFF7FEBFFFF7FEBFFFF7FEBF7F
:1005B000FFF7FEBFFFF7FEBFFFF7FEBFFFF7FEBF6F
:1005C000FFF7FEBFFFF7FEBFFFF7FEBFFFF7FEBF5F
:1005D000FFF7FEBFFFF7FEBFFFF7FEBFFFF7FEBF4F
:1005E000FFF7FEBFFFF7FEBFFFF7FEBFFFF7FEBF3F
:0405F000FFF7FEBF54
:0400000508000511D9
:00000001FF
